{
  "_format": "hh-sol-artifact-1",
  "contractName": "MyToken",
  "sourceName": "contracts/ERC721.sol",
  "abi": [
    {
      "inputs": [],
      "stateMutability": "nonpayable",
      "type": "constructor"
    },
    {
      "anonymous": false,
      "inputs": [
        {
          "indexed": true,
          "internalType": "address",
          "name": "owner",
          "type": "address"
        },
        {
          "indexed": true,
          "internalType": "address",
          "name": "approved",
          "type": "address"
        },
        {
          "indexed": true,
          "internalType": "uint256",
          "name": "tokenId",
          "type": "uint256"
        }
      ],
      "name": "Approval",
      "type": "event"
    },
    {
      "anonymous": false,
      "inputs": [
        {
          "indexed": true,
          "internalType": "address",
          "name": "owner",
          "type": "address"
        },
        {
          "indexed": true,
          "internalType": "address",
          "name": "operator",
          "type": "address"
        },
        {
          "indexed": false,
          "internalType": "bool",
          "name": "approved",
          "type": "bool"
        }
      ],
      "name": "ApprovalForAll",
      "type": "event"
    },
    {
      "anonymous": false,
      "inputs": [
        {
          "indexed": true,
          "internalType": "address",
          "name": "previousOwner",
          "type": "address"
        },
        {
          "indexed": true,
          "internalType": "address",
          "name": "newOwner",
          "type": "address"
        }
      ],
      "name": "OwnershipTransferred",
      "type": "event"
    },
    {
      "anonymous": false,
      "inputs": [
        {
          "indexed": true,
          "internalType": "address",
          "name": "from",
          "type": "address"
        },
        {
          "indexed": true,
          "internalType": "address",
          "name": "to",
          "type": "address"
        },
        {
          "indexed": true,
          "internalType": "uint256",
          "name": "tokenId",
          "type": "uint256"
        }
      ],
      "name": "Transfer",
      "type": "event"
    },
    {
      "inputs": [],
      "name": "MAX_SUPPLY",
      "outputs": [
        {
          "internalType": "uint256",
          "name": "",
          "type": "uint256"
        }
      ],
      "stateMutability": "view",
      "type": "function"
    },
    {
      "inputs": [
        {
          "internalType": "address",
          "name": "to",
          "type": "address"
        },
        {
          "internalType": "uint256",
          "name": "tokenId",
          "type": "uint256"
        }
      ],
      "name": "approve",
      "outputs": [],
      "stateMutability": "nonpayable",
      "type": "function"
    },
    {
      "inputs": [
        {
          "internalType": "address",
          "name": "owner",
          "type": "address"
        }
      ],
      "name": "balanceOf",
      "outputs": [
        {
          "internalType": "uint256",
          "name": "",
          "type": "uint256"
        }
      ],
      "stateMutability": "view",
      "type": "function"
    },
    {
      "inputs": [
        {
          "internalType": "uint256",
          "name": "tokenId",
          "type": "uint256"
        }
      ],
      "name": "burn",
      "outputs": [],
      "stateMutability": "nonpayable",
      "type": "function"
    },
    {
      "inputs": [
        {
          "internalType": "uint256",
          "name": "tokenId",
          "type": "uint256"
        }
      ],
      "name": "getApproved",
      "outputs": [
        {
          "internalType": "address",
          "name": "",
          "type": "address"
        }
      ],
      "stateMutability": "view",
      "type": "function"
    },
    {
      "inputs": [
        {
          "internalType": "address",
          "name": "owner",
          "type": "address"
        },
        {
          "internalType": "address",
          "name": "operator",
          "type": "address"
        }
      ],
      "name": "isApprovedForAll",
      "outputs": [
        {
          "internalType": "bool",
          "name": "",
          "type": "bool"
        }
      ],
      "stateMutability": "view",
      "type": "function"
    },
    {
      "inputs": [],
      "name": "mintRate",
      "outputs": [
        {
          "internalType": "uint256",
          "name": "",
          "type": "uint256"
        }
      ],
      "stateMutability": "view",
      "type": "function"
    },
    {
      "inputs": [],
      "name": "name",
      "outputs": [
        {
          "internalType": "string",
          "name": "",
          "type": "string"
        }
      ],
      "stateMutability": "view",
      "type": "function"
    },
    {
      "inputs": [],
      "name": "owner",
      "outputs": [
        {
          "internalType": "address",
          "name": "",
          "type": "address"
        }
      ],
      "stateMutability": "view",
      "type": "function"
    },
    {
      "inputs": [
        {
          "internalType": "uint256",
          "name": "tokenId",
          "type": "uint256"
        }
      ],
      "name": "ownerOf",
      "outputs": [
        {
          "internalType": "address",
          "name": "",
          "type": "address"
        }
      ],
      "stateMutability": "view",
      "type": "function"
    },
    {
      "inputs": [],
      "name": "renounceOwnership",
      "outputs": [],
      "stateMutability": "nonpayable",
      "type": "function"
    },
    {
      "inputs": [
        {
          "internalType": "address",
          "name": "to",
          "type": "address"
        }
      ],
      "name": "safeMint",
      "outputs": [],
      "stateMutability": "nonpayable",
      "type": "function"
    },
    {
      "inputs": [
        {
          "internalType": "address",
          "name": "from",
          "type": "address"
        },
        {
          "internalType": "address",
          "name": "to",
          "type": "address"
        },
        {
          "internalType": "uint256",
          "name": "tokenId",
          "type": "uint256"
        }
      ],
      "name": "safeTransferFrom",
      "outputs": [],
      "stateMutability": "nonpayable",
      "type": "function"
    },
    {
      "inputs": [
        {
          "internalType": "address",
          "name": "from",
          "type": "address"
        },
        {
          "internalType": "address",
          "name": "to",
          "type": "address"
        },
        {
          "internalType": "uint256",
          "name": "tokenId",
          "type": "uint256"
        },
        {
          "internalType": "bytes",
          "name": "_data",
          "type": "bytes"
        }
      ],
      "name": "safeTransferFrom",
      "outputs": [],
      "stateMutability": "nonpayable",
      "type": "function"
    },
    {
      "inputs": [
        {
          "internalType": "address",
          "name": "operator",
          "type": "address"
        },
        {
          "internalType": "bool",
          "name": "approved",
          "type": "bool"
        }
      ],
      "name": "setApprovalForAll",
      "outputs": [],
      "stateMutability": "nonpayable",
      "type": "function"
    },
    {
      "inputs": [
        {
          "internalType": "bytes4",
          "name": "interfaceId",
          "type": "bytes4"
        }
      ],
      "name": "supportsInterface",
      "outputs": [
        {
          "internalType": "bool",
          "name": "",
          "type": "bool"
        }
      ],
      "stateMutability": "view",
      "type": "function"
    },
    {
      "inputs": [],
      "name": "symbol",
      "outputs": [
        {
          "internalType": "string",
          "name": "",
          "type": "string"
        }
      ],
      "stateMutability": "view",
      "type": "function"
    },
    {
      "inputs": [
        {
          "internalType": "uint256",
          "name": "index",
          "type": "uint256"
        }
      ],
      "name": "tokenByIndex",
      "outputs": [
        {
          "internalType": "uint256",
          "name": "",
          "type": "uint256"
        }
      ],
      "stateMutability": "view",
      "type": "function"
    },
    {
      "inputs": [
        {
          "internalType": "address",
          "name": "owner",
          "type": "address"
        },
        {
          "internalType": "uint256",
          "name": "index",
          "type": "uint256"
        }
      ],
      "name": "tokenOfOwnerByIndex",
      "outputs": [
        {
          "internalType": "uint256",
          "name": "",
          "type": "uint256"
        }
      ],
      "stateMutability": "view",
      "type": "function"
    },
    {
      "inputs": [
        {
          "internalType": "uint256",
          "name": "tokenId",
          "type": "uint256"
        }
      ],
      "name": "tokenURI",
      "outputs": [
        {
          "internalType": "string",
          "name": "",
          "type": "string"
        }
      ],
      "stateMutability": "view",
      "type": "function"
    },
    {
      "inputs": [],
      "name": "totalSupply",
      "outputs": [
        {
          "internalType": "uint256",
          "name": "",
          "type": "uint256"
        }
      ],
      "stateMutability": "view",
      "type": "function"
    },
    {
      "inputs": [
        {
          "internalType": "address",
          "name": "from",
          "type": "address"
        },
        {
          "internalType": "address",
          "name": "to",
          "type": "address"
        },
        {
          "internalType": "uint256",
          "name": "tokenId",
          "type": "uint256"
        }
      ],
      "name": "transferFrom",
      "outputs": [],
      "stateMutability": "nonpayable",
      "type": "function"
    },
    {
      "inputs": [
        {
          "internalType": "address",
          "name": "newOwner",
          "type": "address"
        }
      ],
      "name": "transferOwnership",
      "outputs": [],
      "stateMutability": "nonpayable",
      "type": "function"
    },
    {
      "inputs": [],
      "name": "withdraw",
      "outputs": [],
      "stateMutability": "nonpayable",
      "type": "function"
    }
  ],
  "bytecode": "0x6080604052662386f26fc10000600c556005600d553480156200002157600080fd5b506040518060400160405280600781526020017f4d79546f6b656e000000000000000000000000000000000000000000000000008152506040518060400160405280600381526020017f4d544b00000000000000000000000000000000000000000000000000000000008152508160009080519060200190620000a6929190620001b6565b508060019080519060200190620000bf929190620001b6565b505050620000e2620000d6620000e860201b60201c565b620000f060201b60201c565b620002cb565b600033905090565b6000600a60009054906101000a900473ffffffffffffffffffffffffffffffffffffffff16905081600a60006101000a81548173ffffffffffffffffffffffffffffffffffffffff021916908373ffffffffffffffffffffffffffffffffffffffff1602179055508173ffffffffffffffffffffffffffffffffffffffff168173ffffffffffffffffffffffffffffffffffffffff167f8be0079c531659141344cd1fd0a4f28419497f9722a3daafe3b4186f6b6457e060405160405180910390a35050565b828054620001c49062000266565b90600052602060002090601f016020900481019282620001e8576000855562000234565b82601f106200020357805160ff191683800117855562000234565b8280016001018555821562000234579182015b828111156200023357825182559160200191906001019062000216565b5b50905062000243919062000247565b5090565b5b808211156200026257600081600090555060010162000248565b5090565b600060028204905060018216806200027f57607f821691505b602082108114156200029657620002956200029c565b5b50919050565b7f4e487b7100000000000000000000000000000000000000000000000000000000600052602260045260246000fd5b6137ba80620002db6000396000f3fe608060405234801561001057600080fd5b50600436106101585760003560e01c80634f6ccce7116100c3578063a22cb4651161007c578063a22cb465146103b3578063b88d4fde146103cf578063c87b56dd146103eb578063ca0dcf161461041b578063e985e9c514610439578063f2fde38b1461046957610158565b80634f6ccce7146102dd5780636352211e1461030d57806370a082311461033d578063715018a61461036d5780638da5cb5b1461037757806395d89b411461039557610158565b80632f745c59116101155780632f745c591461023157806332cb6b0c146102615780633ccfd60b1461027f57806340d097c31461028957806342842e0e146102a557806342966c68146102c157610158565b806301ffc9a71461015d57806306fdde031461018d578063081812fc146101ab578063095ea7b3146101db57806318160ddd146101f757806323b872dd14610215575b600080fd5b6101776004803603810190610172919061269c565b610485565b6040516101849190612b2e565b60405180910390f35b610195610497565b6040516101a29190612b49565b60405180910390f35b6101c560048036038101906101c091906126ee565b610529565b6040516101d29190612ac7565b60405180910390f35b6101f560048036038101906101f09190612660565b6105ae565b005b6101ff6106c6565b60405161020c9190612deb565b60405180910390f35b61022f600480360381019061022a919061255a565b6106d3565b005b61024b60048036038101906102469190612660565b610733565b6040516102589190612deb565b60405180910390f35b6102696107d8565b6040516102769190612deb565b60405180910390f35b6102876107de565b005b6102a3600480360381019061029e91906124f5565b6108ed565b005b6102bf60048036038101906102ba919061255a565b61090d565b005b6102db60048036038101906102d691906126ee565b61092d565b005b6102f760048036038101906102f291906126ee565b610989565b6040516103049190612deb565b60405180910390f35b610327600480360381019061032291906126ee565b610a20565b6040516103349190612ac7565b60405180910390f35b610357600480360381019061035291906124f5565b610ad2565b6040516103649190612deb565b60405180910390f35b610375610b8a565b005b61037f610c12565b60405161038c9190612ac7565b60405180910390f35b61039d610c3c565b6040516103aa9190612b49565b60405180910390f35b6103cd60048036038101906103c89190612624565b610cce565b005b6103e960048036038101906103e491906125a9565b610ce4565b005b610405600480360381019061040091906126ee565b610d46565b6040516104129190612b49565b60405180910390f35b610423610ded565b6040516104309190612deb565b60405180910390f35b610453600480360381019061044e919061251e565b610df3565b6040516104609190612b2e565b60405180910390f35b610483600480360381019061047e91906124f5565b610e87565b005b600061049082610f7f565b9050919050565b6060600080546104a690613010565b80601f01602080910402602001604051908101604052809291908181526020018280546104d290613010565b801561051f5780601f106104f45761010080835404028352916020019161051f565b820191906000526020600020905b81548152906001019060200180831161050257829003601f168201915b5050505050905090565b600061053482610ff9565b610573576040517f08c379a000000000000000000000000000000000000000000000000000000000815260040161056a90612d0b565b60405180910390fd5b6004600083815260200190815260200160002060009054906101000a900473ffffffffffffffffffffffffffffffffffffffff169050919050565b60006105b982610a20565b90508073ffffffffffffffffffffffffffffffffffffffff168373ffffffffffffffffffffffffffffffffffffffff16141561062a576040517f08c379a000000000000000000000000000000000000000000000000000000000815260040161062190612d6b565b60405180910390fd5b8073ffffffffffffffffffffffffffffffffffffffff16610649611065565b73ffffffffffffffffffffffffffffffffffffffff161480610678575061067781610672611065565b610df3565b5b6106b7576040517f08c379a00000000000000000000000000000000000000000000000000000000081526004016106ae90612c8b565b60405180910390fd5b6106c1838361106d565b505050565b6000600880549050905090565b6106e46106de611065565b82611126565b610723576040517f08c379a000000000000000000000000000000000000000000000000000000000815260040161071a90612d8b565b60405180910390fd5b61072e838383611204565b505050565b600061073e83610ad2565b821061077f576040517f08c379a000000000000000000000000000000000000000000000000000000000815260040161077690612b6b565b60405180910390fd5b600660008473ffffffffffffffffffffffffffffffffffffffff1673ffffffffffffffffffffffffffffffffffffffff168152602001908152602001600020600083815260200190815260200160002054905092915050565b600d5481565b6107e6611065565b73ffffffffffffffffffffffffffffffffffffffff16610804610c12565b73ffffffffffffffffffffffffffffffffffffffff161461085a576040517f08c379a000000000000000000000000000000000000000000000000000000000815260040161085190612d2b565b60405180910390fd5b6000471161089d576040517f08c379a000000000000000000000000000000000000000000000000000000000815260040161089490612bab565b60405180910390fd5b6108a5610c12565b73ffffffffffffffffffffffffffffffffffffffff166108fc479081150290604051600060405180830381858888f193505050501580156108ea573d6000803e3d6000fd5b50565b6108f7600b61146b565b61090a81610905600b611481565b61148f565b50565b61092883838360405180602001604052806000815250610ce4565b505050565b61093e610938611065565b82611126565b61097d576040517f08c379a000000000000000000000000000000000000000000000000000000000815260040161097490612dcb565b60405180910390fd5b610986816114ad565b50565b60006109936106c6565b82106109d4576040517f08c379a00000000000000000000000000000000000000000000000000000000081526004016109cb90612dab565b60405180910390fd5b60088281548110610a0e577f4e487b7100000000000000000000000000000000000000000000000000000000600052603260045260246000fd5b90600052602060002001549050919050565b6000806002600084815260200190815260200160002060009054906101000a900473ffffffffffffffffffffffffffffffffffffffff169050600073ffffffffffffffffffffffffffffffffffffffff168173ffffffffffffffffffffffffffffffffffffffff161415610ac9576040517f08c379a0000000000000000000000000000000000000000000000000000000008152600401610ac090612ccb565b60405180910390fd5b80915050919050565b60008073ffffffffffffffffffffffffffffffffffffffff168273ffffffffffffffffffffffffffffffffffffffff161415610b43576040517f08c379a0000000000000000000000000000000000000000000000000000000008152600401610b3a90612cab565b60405180910390fd5b600360008373ffffffffffffffffffffffffffffffffffffffff1673ffffffffffffffffffffffffffffffffffffffff168152602001908152602001600020549050919050565b610b92611065565b73ffffffffffffffffffffffffffffffffffffffff16610bb0610c12565b73ffffffffffffffffffffffffffffffffffffffff1614610c06576040517f08c379a0000000000000000000000000000000000000000000000000000000008152600401610bfd90612d2b565b60405180910390fd5b610c1060006115ca565b565b6000600a60009054906101000a900473ffffffffffffffffffffffffffffffffffffffff16905090565b606060018054610c4b90613010565b80601f0160208091040260200160405190810160405280929190818152602001828054610c7790613010565b8015610cc45780601f10610c9957610100808354040283529160200191610cc4565b820191906000526020600020905b815481529060010190602001808311610ca757829003601f168201915b5050505050905090565b610ce0610cd9611065565b8383611690565b5050565b610cf5610cef611065565b83611126565b610d34576040517f08c379a0000000000000000000000000000000000000000000000000000000008152600401610d2b90612d8b565b60405180910390fd5b610d40848484846117fd565b50505050565b6060610d5182610ff9565b610d90576040517f08c379a0000000000000000000000000000000000000000000000000000000008152600401610d8790612d4b565b60405180910390fd5b6000610d9a611859565b90506000815111610dba5760405180602001604052806000815250610de5565b80610dc484611896565b604051602001610dd5929190612aa3565b6040516020818303038152906040525b915050919050565b600c5481565b6000600560008473ffffffffffffffffffffffffffffffffffffffff1673ffffffffffffffffffffffffffffffffffffffff16815260200190815260200160002060008373ffffffffffffffffffffffffffffffffffffffff1673ffffffffffffffffffffffffffffffffffffffff16815260200190815260200160002060009054906101000a900460ff16905092915050565b610e8f611065565b73ffffffffffffffffffffffffffffffffffffffff16610ead610c12565b73ffffffffffffffffffffffffffffffffffffffff1614610f03576040517f08c379a0000000000000000000000000000000000000000000000000000000008152600401610efa90612d2b565b60405180910390fd5b600073ffffffffffffffffffffffffffffffffffffffff168173ffffffffffffffffffffffffffffffffffffffff161415610f73576040517f08c379a0000000000000000000000000000000000000000000000000000000008152600401610f6a90612bcb565b60405180910390fd5b610f7c816115ca565b50565b60007f780e9d63000000000000000000000000000000000000000000000000000000007bffffffffffffffffffffffffffffffffffffffffffffffffffffffff1916827bffffffffffffffffffffffffffffffffffffffffffffffffffffffff19161480610ff25750610ff182611a43565b5b9050919050565b60008073ffffffffffffffffffffffffffffffffffffffff166002600084815260200190815260200160002060009054906101000a900473ffffffffffffffffffffffffffffffffffffffff1673ffffffffffffffffffffffffffffffffffffffff1614159050919050565b600033905090565b816004600083815260200190815260200160002060006101000a81548173ffffffffffffffffffffffffffffffffffffffff021916908373ffffffffffffffffffffffffffffffffffffffff160217905550808273ffffffffffffffffffffffffffffffffffffffff166110e083610a20565b73ffffffffffffffffffffffffffffffffffffffff167f8c5be1e5ebec7d5bd14f71427d1e84f3dd0314c0f7b2291e5b200ac8c7c3b92560405160405180910390a45050565b600061113182610ff9565b611170576040517f08c379a000000000000000000000000000000000000000000000000000000000815260040161116790612c6b565b60405180910390fd5b600061117b83610a20565b90508073ffffffffffffffffffffffffffffffffffffffff168473ffffffffffffffffffffffffffffffffffffffff1614806111ea57508373ffffffffffffffffffffffffffffffffffffffff166111d284610529565b73ffffffffffffffffffffffffffffffffffffffff16145b806111fb57506111fa8185610df3565b5b91505092915050565b8273ffffffffffffffffffffffffffffffffffffffff1661122482610a20565b73ffffffffffffffffffffffffffffffffffffffff161461127a576040517f08c379a000000000000000000000000000000000000000000000000000000000815260040161127190612beb565b60405180910390fd5b600073ffffffffffffffffffffffffffffffffffffffff168273ffffffffffffffffffffffffffffffffffffffff1614156112ea576040517f08c379a00000000000000000000000000000000000000000000000000000000081526004016112e190612c2b565b60405180910390fd5b6112f5838383611b25565b61130060008261106d565b6001600360008573ffffffffffffffffffffffffffffffffffffffff1673ffffffffffffffffffffffffffffffffffffffff16815260200190815260200160002060008282546113509190612f26565b925050819055506001600360008473ffffffffffffffffffffffffffffffffffffffff1673ffffffffffffffffffffffffffffffffffffffff16815260200190815260200160002060008282546113a79190612e9f565b92505081905550816002600083815260200190815260200160002060006101000a81548173ffffffffffffffffffffffffffffffffffffffff021916908373ffffffffffffffffffffffffffffffffffffffff160217905550808273ffffffffffffffffffffffffffffffffffffffff168473ffffffffffffffffffffffffffffffffffffffff167fddf252ad1be2c89b69c2b068fc378daa952ba7f163c4a11628f55a4df523b3ef60405160405180910390a4611466838383611b35565b505050565b6001816000016000828254019250508190555050565b600081600001549050919050565b6114a9828260405180602001604052806000815250611b3a565b5050565b60006114b882610a20565b90506114c681600084611b25565b6114d160008361106d565b6001600360008373ffffffffffffffffffffffffffffffffffffffff1673ffffffffffffffffffffffffffffffffffffffff16815260200190815260200160002060008282546115219190612f26565b925050819055506002600083815260200190815260200160002060006101000a81549073ffffffffffffffffffffffffffffffffffffffff021916905581600073ffffffffffffffffffffffffffffffffffffffff168273ffffffffffffffffffffffffffffffffffffffff167fddf252ad1be2c89b69c2b068fc378daa952ba7f163c4a11628f55a4df523b3ef60405160405180910390a46115c681600084611b35565b5050565b6000600a60009054906101000a900473ffffffffffffffffffffffffffffffffffffffff16905081600a60006101000a81548173ffffffffffffffffffffffffffffffffffffffff021916908373ffffffffffffffffffffffffffffffffffffffff1602179055508173ffffffffffffffffffffffffffffffffffffffff168173ffffffffffffffffffffffffffffffffffffffff167f8be0079c531659141344cd1fd0a4f28419497f9722a3daafe3b4186f6b6457e060405160405180910390a35050565b8173ffffffffffffffffffffffffffffffffffffffff168373ffffffffffffffffffffffffffffffffffffffff1614156116ff576040517f08c379a00000000000000000000000000000000000000000000000000000000081526004016116f690612c4b565b60405180910390fd5b80600560008573ffffffffffffffffffffffffffffffffffffffff1673ffffffffffffffffffffffffffffffffffffffff16815260200190815260200160002060008473ffffffffffffffffffffffffffffffffffffffff1673ffffffffffffffffffffffffffffffffffffffff16815260200190815260200160002060006101000a81548160ff0219169083151502179055508173ffffffffffffffffffffffffffffffffffffffff168373ffffffffffffffffffffffffffffffffffffffff167f17307eab39ab6107e8899845ad3d59bd9653f200f220920489ca2b5937696c31836040516117f09190612b2e565b60405180910390a3505050565b611808848484611204565b61181484848484611b95565b611853576040517f08c379a000000000000000000000000000000000000000000000000000000000815260040161184a90612b8b565b60405180910390fd5b50505050565b60606040518060400160405280601f81526020017f68747470733a2f2f6170692e4d79546f6b656e2e636f6d2f746f6b656e732f00815250905090565b606060008214156118de576040518060400160405280600181526020017f30000000000000000000000000000000000000000000000000000000000000008152509050611a3e565b600082905060005b600082146119105780806118f990613073565b915050600a826119099190612ef5565b91506118e6565b60008167ffffffffffffffff811115611952577f4e487b7100000000000000000000000000000000000000000000000000000000600052604160045260246000fd5b6040519080825280601f01601f1916602001820160405280156119845781602001600182028036833780820191505090505b5090505b60008514611a375760018261199d9190612f26565b9150600a856119ac91906130bc565b60306119b89190612e9f565b60f81b8183815181106119f4577f4e487b7100000000000000000000000000000000000000000000000000000000600052603260045260246000fd5b60200101907effffffffffffffffffffffffffffffffffffffffffffffffffffffffffffff1916908160001a905350600a85611a309190612ef5565b9450611988565b8093505050505b919050565b60007f80ac58cd000000000000000000000000000000000000000000000000000000007bffffffffffffffffffffffffffffffffffffffffffffffffffffffff1916827bffffffffffffffffffffffffffffffffffffffffffffffffffffffff19161480611b0e57507f5b5e139f000000000000000000000000000000000000000000000000000000007bffffffffffffffffffffffffffffffffffffffffffffffffffffffff1916827bffffffffffffffffffffffffffffffffffffffffffffffffffffffff1916145b80611b1e5750611b1d82611d2c565b5b9050919050565b611b30838383611d96565b505050565b505050565b611b448383611eaa565b611b516000848484611b95565b611b90576040517f08c379a0000000000000000000000000000000000000000000000000000000008152600401611b8790612b8b565b60405180910390fd5b505050565b6000611bb68473ffffffffffffffffffffffffffffffffffffffff16612084565b15611d1f578373ffffffffffffffffffffffffffffffffffffffff1663150b7a02611bdf611065565b8786866040518563ffffffff1660e01b8152600401611c019493929190612ae2565b602060405180830381600087803b158015611c1b57600080fd5b505af1925050508015611c4c57506040513d601f19601f82011682018060405250810190611c4991906126c5565b60015b611ccf573d8060008114611c7c576040519150601f19603f3d011682016040523d82523d6000602084013e611c81565b606091505b50600081511415611cc7576040517f08c379a0000000000000000000000000000000000000000000000000000000008152600401611cbe90612b8b565b60405180910390fd5b805181602001fd5b63150b7a0260e01b7bffffffffffffffffffffffffffffffffffffffffffffffffffffffff1916817bffffffffffffffffffffffffffffffffffffffffffffffffffffffff191614915050611d24565b600190505b949350505050565b60007f01ffc9a7000000000000000000000000000000000000000000000000000000007bffffffffffffffffffffffffffffffffffffffffffffffffffffffff1916827bffffffffffffffffffffffffffffffffffffffffffffffffffffffff1916149050919050565b611da18383836120a7565b600073ffffffffffffffffffffffffffffffffffffffff168373ffffffffffffffffffffffffffffffffffffffff161415611de457611ddf816120ac565b611e23565b8173ffffffffffffffffffffffffffffffffffffffff168373ffffffffffffffffffffffffffffffffffffffff1614611e2257611e2183826120f5565b5b5b600073ffffffffffffffffffffffffffffffffffffffff168273ffffffffffffffffffffffffffffffffffffffff161415611e6657611e6181612262565b611ea5565b8273ffffffffffffffffffffffffffffffffffffffff168273ffffffffffffffffffffffffffffffffffffffff1614611ea457611ea382826123a5565b5b5b505050565b600073ffffffffffffffffffffffffffffffffffffffff168273ffffffffffffffffffffffffffffffffffffffff161415611f1a576040517f08c379a0000000000000000000000000000000000000000000000000000000008152600401611f1190612ceb565b60405180910390fd5b611f2381610ff9565b15611f63576040517f08c379a0000000000000000000000000000000000000000000000000000000008152600401611f5a90612c0b565b60405180910390fd5b611f6f60008383611b25565b6001600360008473ffffffffffffffffffffffffffffffffffffffff1673ffffffffffffffffffffffffffffffffffffffff1681526020019081526020016000206000828254611fbf9190612e9f565b92505081905550816002600083815260200190815260200160002060006101000a81548173ffffffffffffffffffffffffffffffffffffffff021916908373ffffffffffffffffffffffffffffffffffffffff160217905550808273ffffffffffffffffffffffffffffffffffffffff16600073ffffffffffffffffffffffffffffffffffffffff167fddf252ad1be2c89b69c2b068fc378daa952ba7f163c4a11628f55a4df523b3ef60405160405180910390a461208060008383611b35565b5050565b6000808273ffffffffffffffffffffffffffffffffffffffff163b119050919050565b505050565b6008805490506009600083815260200190815260200160002081905550600881908060018154018082558091505060019003906000526020600020016000909190919091505550565b6000600161210284610ad2565b61210c9190612f26565b90506000600760008481526020019081526020016000205490508181146121f1576000600660008673ffffffffffffffffffffffffffffffffffffffff1673ffffffffffffffffffffffffffffffffffffffff168152602001908152602001600020600084815260200190815260200160002054905080600660008773ffffffffffffffffffffffffffffffffffffffff1673ffffffffffffffffffffffffffffffffffffffff168152602001908152602001600020600084815260200190815260200160002081905550816007600083815260200190815260200160002081905550505b6007600084815260200190815260200160002060009055600660008573ffffffffffffffffffffffffffffffffffffffff1673ffffffffffffffffffffffffffffffffffffffff16815260200190815260200160002060008381526020019081526020016000206000905550505050565b600060016008805490506122769190612f26565b90506000600960008481526020019081526020016000205490506000600883815481106122cc577f4e487b7100000000000000000000000000000000000000000000000000000000600052603260045260246000fd5b906000526020600020015490508060088381548110612314577f4e487b7100000000000000000000000000000000000000000000000000000000600052603260045260246000fd5b906000526020600020018190555081600960008381526020019081526020016000208190555060096000858152602001908152602001600020600090556008805480612389577f4e487b7100000000000000000000000000000000000000000000000000000000600052603160045260246000fd5b6001900381819060005260206000200160009055905550505050565b60006123b083610ad2565b905081600660008573ffffffffffffffffffffffffffffffffffffffff1673ffffffffffffffffffffffffffffffffffffffff168152602001908152602001600020600083815260200190815260200160002081905550806007600084815260200190815260200160002081905550505050565b600061243761243284612e2b565b612e06565b90508281526020810184848401111561244f57600080fd5b61245a848285612fce565b509392505050565b60008135905061247181613728565b92915050565b6000813590506124868161373f565b92915050565b60008135905061249b81613756565b92915050565b6000815190506124b081613756565b92915050565b600082601f8301126124c757600080fd5b81356124d7848260208601612424565b91505092915050565b6000813590506124ef8161376d565b92915050565b60006020828403121561250757600080fd5b600061251584828501612462565b91505092915050565b6000806040838503121561253157600080fd5b600061253f85828601612462565b925050602061255085828601612462565b9150509250929050565b60008060006060848603121561256f57600080fd5b600061257d86828701612462565b935050602061258e86828701612462565b925050604061259f868287016124e0565b9150509250925092565b600080600080608085870312156125bf57600080fd5b60006125cd87828801612462565b94505060206125de87828801612462565b93505060406125ef878288016124e0565b925050606085013567ffffffffffffffff81111561260c57600080fd5b612618878288016124b6565b91505092959194509250565b6000806040838503121561263757600080fd5b600061264585828601612462565b925050602061265685828601612477565b9150509250929050565b6000806040838503121561267357600080fd5b600061268185828601612462565b9250506020612692858286016124e0565b9150509250929050565b6000602082840312156126ae57600080fd5b60006126bc8482850161248c565b91505092915050565b6000602082840312156126d757600080fd5b60006126e5848285016124a1565b91505092915050565b60006020828403121561270057600080fd5b600061270e848285016124e0565b91505092915050565b61272081612f5a565b82525050565b61272f81612f6c565b82525050565b600061274082612e5c565b61274a8185612e72565b935061275a818560208601612fdd565b612763816131a9565b840191505092915050565b600061277982612e67565b6127838185612e83565b9350612793818560208601612fdd565b61279c816131a9565b840191505092915050565b60006127b282612e67565b6127bc8185612e94565b93506127cc818560208601612fdd565b80840191505092915050565b60006127e5602b83612e83565b91506127f0826131ba565b604082019050919050565b6000612808603283612e83565b915061281382613209565b604082019050919050565b600061282b600f83612e83565b915061283682613258565b602082019050919050565b600061284e602683612e83565b915061285982613281565b604082019050919050565b6000612871602583612e83565b915061287c826132d0565b604082019050919050565b6000612894601c83612e83565b915061289f8261331f565b602082019050919050565b60006128b7602483612e83565b91506128c282613348565b604082019050919050565b60006128da601983612e83565b91506128e582613397565b602082019050919050565b60006128fd602c83612e83565b9150612908826133c0565b604082019050919050565b6000612920603883612e83565b915061292b8261340f565b604082019050919050565b6000612943602a83612e83565b915061294e8261345e565b604082019050919050565b6000612966602983612e83565b9150612971826134ad565b604082019050919050565b6000612989602083612e83565b9150612994826134fc565b602082019050919050565b60006129ac602c83612e83565b91506129b782613525565b604082019050919050565b60006129cf602083612e83565b91506129da82613574565b602082019050919050565b60006129f2602f83612e83565b91506129fd8261359d565b604082019050919050565b6000612a15602183612e83565b9150612a20826135ec565b604082019050919050565b6000612a38603183612e83565b9150612a438261363b565b604082019050919050565b6000612a5b602c83612e83565b9150612a668261368a565b604082019050919050565b6000612a7e603083612e83565b9150612a89826136d9565b604082019050919050565b612a9d81612fc4565b82525050565b6000612aaf82856127a7565b9150612abb82846127a7565b91508190509392505050565b6000602082019050612adc6000830184612717565b92915050565b6000608082019050612af76000830187612717565b612b046020830186612717565b612b116040830185612a94565b8181036060830152612b238184612735565b905095945050505050565b6000602082019050612b436000830184612726565b92915050565b60006020820190508181036000830152612b63818461276e565b905092915050565b60006020820190508181036000830152612b84816127d8565b9050919050565b60006020820190508181036000830152612ba4816127fb565b9050919050565b60006020820190508181036000830152612bc48161281e565b9050919050565b60006020820190508181036000830152612be481612841565b9050919050565b60006020820190508181036000830152612c0481612864565b9050919050565b60006020820190508181036000830152612c2481612887565b9050919050565b60006020820190508181036000830152612c44816128aa565b9050919050565b60006020820190508181036000830152612c64816128cd565b9050919050565b60006020820190508181036000830152612c84816128f0565b9050919050565b60006020820190508181036000830152612ca481612913565b9050919050565b60006020820190508181036000830152612cc481612936565b9050919050565b60006020820190508181036000830152612ce481612959565b9050919050565b60006020820190508181036000830152612d048161297c565b9050919050565b60006020820190508181036000830152612d248161299f565b9050919050565b60006020820190508181036000830152612d44816129c2565b9050919050565b60006020820190508181036000830152612d64816129e5565b9050919050565b60006020820190508181036000830152612d8481612a08565b9050919050565b60006020820190508181036000830152612da481612a2b565b9050919050565b60006020820190508181036000830152612dc481612a4e565b9050919050565b60006020820190508181036000830152612de481612a71565b9050919050565b6000602082019050612e006000830184612a94565b92915050565b6000612e10612e21565b9050612e1c8282613042565b919050565b6000604051905090565b600067ffffffffffffffff821115612e4657612e4561317a565b5b612e4f826131a9565b9050602081019050919050565b600081519050919050565b600081519050919050565b600082825260208201905092915050565b600082825260208201905092915050565b600081905092915050565b6000612eaa82612fc4565b9150612eb583612fc4565b9250827fffffffffffffffffffffffffffffffffffffffffffffffffffffffffffffffff03821115612eea57612ee96130ed565b5b828201905092915050565b6000612f0082612fc4565b9150612f0b83612fc4565b925082612f1b57612f1a61311c565b5b828204905092915050565b6000612f3182612fc4565b9150612f3c83612fc4565b925082821015612f4f57612f4e6130ed565b5b828203905092915050565b6000612f6582612fa4565b9050919050565b60008115159050919050565b60007fffffffff0000000000000000000000000000000000000000000000000000000082169050919050565b600073ffffffffffffffffffffffffffffffffffffffff82169050919050565b6000819050919050565b82818337600083830152505050565b60005b83811015612ffb578082015181840152602081019050612fe0565b8381111561300a576000848401525b50505050565b6000600282049050600182168061302857607f821691505b6020821081141561303c5761303b61314b565b5b50919050565b61304b826131a9565b810181811067ffffffffffffffff8211171561306a5761306961317a565b5b80604052505050565b600061307e82612fc4565b91507fffffffffffffffffffffffffffffffffffffffffffffffffffffffffffffffff8214156130b1576130b06130ed565b5b600182019050919050565b60006130c782612fc4565b91506130d283612fc4565b9250826130e2576130e161311c565b5b828206905092915050565b7f4e487b7100000000000000000000000000000000000000000000000000000000600052601160045260246000fd5b7f4e487b7100000000000000000000000000000000000000000000000000000000600052601260045260246000fd5b7f4e487b7100000000000000000000000000000000000000000000000000000000600052602260045260246000fd5b7f4e487b7100000000000000000000000000000000000000000000000000000000600052604160045260246000fd5b6000601f19601f8301169050919050565b7f455243373231456e756d657261626c653a206f776e657220696e646578206f7560008201527f74206f6620626f756e6473000000000000000000000000000000000000000000602082015250565b7f4552433732313a207472616e7366657220746f206e6f6e20455243373231526560008201527f63656976657220696d706c656d656e7465720000000000000000000000000000602082015250565b7f62616c616e6365206973207a65726f0000000000000000000000000000000000600082015250565b7f4f776e61626c653a206e6577206f776e657220697320746865207a65726f206160008201527f6464726573730000000000000000000000000000000000000000000000000000602082015250565b7f4552433732313a207472616e736665722066726f6d20696e636f72726563742060008201527f6f776e6572000000000000000000000000000000000000000000000000000000602082015250565b7f4552433732313a20746f6b656e20616c7265616479206d696e74656400000000600082015250565b7f4552433732313a207472616e7366657220746f20746865207a65726f2061646460008201527f7265737300000000000000000000000000000000000000000000000000000000602082015250565b7f4552433732313a20617070726f766520746f2063616c6c657200000000000000600082015250565b7f4552433732313a206f70657261746f7220717565727920666f72206e6f6e657860008201527f697374656e7420746f6b656e0000000000000000000000000000000000000000602082015250565b7f4552433732313a20617070726f76652063616c6c6572206973206e6f74206f7760008201527f6e6572206e6f7220617070726f76656420666f7220616c6c0000000000000000602082015250565b7f4552433732313a2062616c616e636520717565727920666f7220746865207a6560008201527f726f206164647265737300000000000000000000000000000000000000000000602082015250565b7f4552433732313a206f776e657220717565727920666f72206e6f6e657869737460008201527f656e7420746f6b656e0000000000000000000000000000000000000000000000602082015250565b7f4552433732313a206d696e7420746f20746865207a65726f2061646472657373600082015250565b7f4552433732313a20617070726f76656420717565727920666f72206e6f6e657860008201527f697374656e7420746f6b656e0000000000000000000000000000000000000000602082015250565b7f4f776e61626c653a2063616c6c6572206973206e6f7420746865206f776e6572600082015250565b7f4552433732314d657461646174613a2055524920717565727920666f72206e6f60008201527f6e6578697374656e7420746f6b656e0000000000000000000000000000000000602082015250565b7f4552433732313a20617070726f76616c20746f2063757272656e74206f776e6560008201527f7200000000000000000000000000000000000000000000000000000000000000602082015250565b7f4552433732313a207472616e736665722063616c6c6572206973206e6f74206f60008201527f776e6572206e6f7220617070726f766564000000000000000000000000000000602082015250565b7f455243373231456e756d657261626c653a20676c6f62616c20696e646578206f60008201527f7574206f6620626f756e64730000000000000000000000000000000000000000602082015250565b7f4552433732314275726e61626c653a2063616c6c6572206973206e6f74206f7760008201527f6e6572206e6f7220617070726f76656400000000000000000000000000000000602082015250565b61373181612f5a565b811461373c57600080fd5b50565b61374881612f6c565b811461375357600080fd5b50565b61375f81612f78565b811461376a57600080fd5b50565b61377681612fc4565b811461378157600080fd5b5056fea26469706673582212207dcaf9ec90e89661b2da7ff6de007f3d1f8078589b69ee9238ca112d8a0f458364736f6c63430008010033",
  "linkReferences": {},
  "deployedLinkReferences": {}
}